:020000040800F2
:10000000E804002049010008E90400085904000838
:10001000E5040008C90100084F0E000800000000B8
:100020000000000000000000000000008906000839
:10003000CD01000800000000710500089D070008C0
:100040006301000863010008630100086301000800
:100050006301000863010008D10100086301000882
:10006000FD010008250200084D0200086301000898
:1000700063010008630100086301000863010008D0
:1000800063010008630100086301000863010008C0
:1000900063010008630100086301000863010008B0
:1000A00063010008630100086301000863010008A0
:1000B0006301000863010008DD080008630100080F
:1000C0006301000863010008630100086301000880
:1000D00063010008490B0008630100086301000880
:1000E0006301000863010008630100086301000860
:1000F0006301000863010008630100086301000850
:10010000630100086301000863010008630100083F
:10011000630100086301000863010008630100082F
:10012000630100086301000863010008630100081F
:10013000DFF810D000F01AF800480047BD0E0008A4
:10014000AFF30080E80400200648804706480047D7
:10015000FEE7FEE7FEE7FEE7FEE7FEE7FEE7FEE777
:10016000FEE7FEE7DD07000831010008064C074DF9
:1001700006E0E06840F0010394E807009847103477
:10018000AC42F6D3FFF7D8FF740F0008940F0008B5
:1001900008B50121082000F0FDF94FF48070ADF89A
:1001A000000010208DF8030003208DF8020069463E
:1001B000044800F079F84FF48071024800F048F9E3
:1001C00008BD0000000C014000BFFEE770470000C2
:1001D00010B5012000F054F8012806D10548006848
:1001E000012802D1002004490860012000F042F8F3
:1001F00010BD0000000121429401234210B50420EB
:1002000000F03EF8012805D10448006810B901202B
:1002100003490860042000F02DF810BD08012342B6
:10022000A081214210B5082000F02AF8012806D14B
:100230000548006818B90120034988310860082082
:1002400000F018F810BD00000C01234210B510207A
:1002500000F016F8012805D10448006810B9002004
:1002600003490860102000F005F810BD100123427A
:10027000A081214201490860704700001404014038
:10028000014600200022074B1B6803EA0102054BD0
:1002900014331B680B4013B10AB1012000E00020A9
:1002A00070470000000401402DE9F041024600259E
:1002B0000026002000230024002791F803C00CF042
:1002C0000F0591F803C00CF0100CBCF1000F03D027
:1002D00091F802C04CEA050591F800C0BCF1000F8E
:1002E00031D0146800202BE04FF0010C0CFA00F321
:1002F000B1F800C00CEA03069E4220D183004FF003
:100300000F0C0CFA03F7BC4305FA03FC4CEA040497
:1003100091F803C0BCF1280F06D14FF0010C0CFA84
:1003200000FCC2F814C00AE091F803C0BCF1480F09
:1003300005D14FF0010C0CFA00FCC2F810C0401CB3
:100340000828D1D31460B1F800C0BCF1FF0F34DD30
:10035000546800202EE000F1080C4FF0010808FA64
:100360000CF3B1F800C00CEA03069E4221D18300D1
:100370004FF00F0C0CFA03F7BC4305FA03FC4CEAF0
:10038000040491F803C0BCF1280F05D100F1080C5A
:1003900008FA0CF8C2F8148091F803C0BCF1480FB9
:1003A00007D100F1080C4FF0010808FA0CF8C2F868
:1003B0001080401C0828CED35460BDE8F0810000B6
:1003C000F0B50A46002300240021002500F0004675
:1003D000B6F1004F02D11D4EF16901E01B4E71686C
:1003E000C0F3034583B200F44016B6F5401F08D1B0
:1003F00021F07061154E766826F07066134F7E60AE
:1004000012E000F48016B6F5801F06D1032606FA26
:1004100005F4A14341F0706106E0460D360103FA90
:1004200006F6B14341F0706122B1460D360103FA80
:1004300006F6314300F00046B6F1004F02D1034EFC
:10044000F16101E0014E7160F0BD0000000001406B
:10045000416170470161704700BFFEE708B50121A7
:10046000442000F097F80120ADF8000028208DF816
:10047000030069460648FFF717FF1C20ADF800008F
:1004800048208DF8030069460248FFF70DFF08BDBC
:10049000000801400018014008B50121482000F083
:1004A00079F82020ADF8000010208DF8030003201B
:1004B0008DF8020069460948FFF7F6FE202107483B
:1004C000FFF7C8FF2020ADF8000069460448FFF799
:1004D000EBFE20210248FFF7BDFF08BD000C0140E4
:1004E0000018014000BFFEE77047000070B5002112
:1004F00000230F22C47804B3154C246804F4E0648C
:10050000C4F5E064210AC1F10403CA40447804FA46
:1005100003F184781440214309010E4C0678A1555B
:10052000047804F01F050124AC4005786D11AD007E
:1005300005F1E025C5F8004109E0047804F01F0545
:100540000124AC40044D0678761145F8264070BD74
:100550000CED00E000E400E080E100E0024901432E
:10056000024A1160704700000000FA050CED00E03F
:100570007047000029B1064AD2690243044BDA6190
:1005800004E0034AD2698243014BDA6170470000FC
:100590000010024029B1064A92690243044B9A6155
:1005A00004E0034A92698243014B9A61704700005C
:1005B0000010024030B500210022002400232D4D00
:1005C0006D6805F00C0121B1042905D0082923D15B
:1005D00005E0294D056022E0274D05601FE0254D0F
:1005E0006D6805F47012234D6D6805F480340225A2
:1005F00005EB92421CB9214D554305600BE01D4DA2
:100600006D6805F400351DB11C4D5543056002E0D1
:10061000194D5543056002E0174D056000BF00BF4E
:10062000144D6D6805F0F0010909154D6B5C056806
:10063000DD4045600F4D6D6805F4E061090A104D1D
:100640006B5C4568DD4085600A4D6D6805F460515E
:10065000C90A0B4D6B5C4568DD40C560054D6D6892
:1006600005F44041890B074D6B5CC568B5FBF3F59C
:10067000056130BD0010024000127A0000093D0003
:100680000000002010000020704710B500F002F8B4
:1006900010BD00000CB500200190009033480068A8
:1006A00040F480303149086000BF3048006800F4F1
:1006B000003000900198401C0190009818B90198F2
:1006C000B0F5A06FF1D12948006800F4003010B1F6
:1006D0000120009001E0002000900098012843D103
:1006E0002348006840F0100021490860084600686F
:1006F00020F0030008600846006840F0020008602F
:100700001A484068194948600846406848600846E9
:10071000406840F4806048600846406820F47C10DF
:1007200048600846406840F4E810486008460068A1
:1007300040F08070086000BF0C48006800F0007056
:100740000028F9D00948406820F0030007494860B4
:100750000846406840F00200486000BF0348406817
:1007600000F00C000828F9D10CBD00000010024078
:1007700000200240042808D14FF0E021096941F02F
:1007800004014FF0E022116107E04FF0E021096918
:1007900021F004014FF0E022116170477047000022
:1007A00010B504466FF00400FFF7E4FFE11704EB17
:1007B0005171C1F3C701074A11701046007800EB70
:1007C0004001C1EBC0104FF6FF7101EAC0000249C1
:1007D000088010BD140000201600002010B513483A
:1007E000006840F00100114908600846406810495F
:1007F00008400E494860084600680E4908400B4909
:1008000008600846006820F48020086008464068B8
:1008100020F4FE0048604FF41F008860FFF735FFAA
:100820004FF000600449086010BD00000010024055
:100830000000FFF8FFFFF6FE08ED00E030B589B0DC
:1008400005460C4601210820FFF7A4FE01210220E5
:10085000FFF790FE01210846FFF79CFE2020ADF82F
:10086000040003208DF8060018208DF8070001A968
:100870001748FFF719FD01211648FFF7A1FDADF854
:100880001C50ADF818400020ADF81E00ADF81A005D
:1008900006A9114800F006F96020ADF80800022012
:1008A000ADF810000120ADF80A0002A90A4800F0D6
:1008B00097F80821084800F0E5F80121064800F003
:1008C00059F80121044800F064F809B030BD000077
:1008D000000C014000081A000004004010B501217E
:1008E000084800F062F838B10748006808B90120EC
:1008F00000E00020044908600121024800F046F8A9
:1009000010BD000000080040940123427FB5054659
:100910000C4601210420FFF72DFEADF80850ADF87C
:1009200004400020ADF80A00ADF8060001A9104807
:1009300000F0B8F8012211460D4800F047F80121F7
:100940000B4800F023F81E208DF8000002208DF8DF
:10095000010003208DF8020001208DF80300684695
:10096000FFF7C4FD0121024800F013F87FBD00002D
:100970000008004021B1028842F08002028004E0B9
:1009800002884FF67F731A4002807047CA43028282
:10099000704721B1028842F00102028004E002881F
:1009A0004FF6FE731A400280704730B502460020B1
:1009B00000230024158A05EA0103958905EA01044C
:1009C00013B10CB1012000E0002030BD1AB18389C1
:1009D0000B43838102E083898B438381704700004E
:1009E00070B5002400220023058C4FF6EF763540C9
:1009F0000584028C8388048B48F6FF752C404FF6E3
:100A0000FF452C400D884FF6FF7606EA05252C435E
:100A10004FF6DF752A400D8906EA05152A434D88F1
:100A200006EA05152A43154DA84202D0144DA842E6
:100A30001DD14FF67F752A404D894FF6FF7606EAA5
:100A400005152A434FF6BF752A408D8806EA05151D
:100A50002A434FF6FF352B404FF2FF752B408D890F
:100A600006EA85052B43CD8906EA85052B4383805D
:100A70000483CD880587028470BD0000002C0140EE
:100A8000003401400A460021018B4FF2FF731940E8
:100A90004FF6FF7303EA022319430183704701876E
:100AA00070470000002202881D4B98420ED01D4B5B
:100AB00098420BD0B0F1804F08D01B4B984205D024
:100AC0001A4B984202D01A4B984204D14FF68F73BA
:100AD0001A404B881A43174B984207D0164B98423E
:100AE00004D04FF6FF431A40CB881A4302808B880C
:100AF00083850B8803850A4B98420BD0094B98429B
:100B000008D00E4B984205D00D4B984202D00D4BA9
:100B1000984201D10B7A038601238382704700003B
:100B2000002C014000340140000400400008004057
:100B3000000C004000100040001400400040014044
:100B4000004401400048014010B540F225511D48C5
:100B500000F0B8F810B31B4800F070F9C4B21A489E
:100B6000008800F40040C8B91748008800F48040AD
:100B700060B10A2C03D000201349088020E01248FD
:100B8000008840F400401049088019E00D2C06D17F
:100B90000D48008840F480400B49088010E00A4866
:100BA0000088C0F30D0009490C5407480088401C18
:100BB0000549088008460088C72801DD0020088014
:100BC00010BD000000380140180000201C0000206B
:100BD00010B586B0044601210420FFF7DBFC01219B
:100BE0008803FFF7D7FC4FF40070ADF81400032022
:100BF0008DF8160018208DF8170005A91E48FFF77C
:100C000053FB4FF48060ADF8140004208DF81700FA
:100C100005A91948FFF748FB01940020ADF808002A
:100C2000ADF80A00ADF80C00ADF810000C20ADF8DE
:100C30000E0001A9114800F095F801210F4800F0BD
:100C400028F840210D4800F01BF8012240F2255100
:100C50000A4800F061F825208DF8000003208DF887
:100C600001008DF8020001208DF803006846FFF7AF
:100C70003DFC06B010BD00000008014000380140F6
:100C800001F40072B2F5007F00D100BFCA430280B8
:100C9000704721B1828942F40052828104E0828946
:100CA0004DF6FF731A408281704702460020B1F56D
:100CB000007F00D100BF13880B400BB1012000E082
:100CC0000020704770B50246002400230025002054
:100CD00040F66A16B14200D100BFC1F3421501F0DF
:100CE0001F03012606FA03F3012D02D19689334032
:100CF00006E0022D02D1168A334001E0968A334085
:100D00000C12012606FA04F41688344013B10CB113
:100D1000012000E0002070BDF0B50346002400264D
:100D20000025002040F66A17B94200D100BF1846DE
:100D3000C1F3421401F01F06012707FA06F5012C42
:100D400001D10C3004E0022C01D1103000E014304D
:100D50001AB107682F43076002E00768AF430760D6
:100D6000F0BD00002DE9F04786B005460E46002490
:100D7000A24600BFA1460027B08900B100BF2F46A0
:100D80002C8A4CF6FF700440F08804432C82AC8916
:100D90004EF6F3100440B088318908437189084346
:100DA0000443AC81AC8A4FF6FF400440B089044351
:100DB000AC8201A8FFF7FEFB1F48874202D1DDF895
:100DC00010A001E0DDF80CA0A88900F4004040B1BB
:100DD0000AEBCA0000EB0A1031684900B0FBF1F8D9
:100DE00007E00AEBCA0000EB0A1031688900B0FB8B
:100DF000F1F86420B8FBF0F004012009642101FB44
:100E00001089A88900F4004040B1322000EBC900ED
:100E1000B0FBF1F000F00700044308E0322000EBE3
:100E200009106421B0FBF1F000F00F0004432C81A5
:100E300006B0BDE8F0870000003801400146888810
:100E4000C0F308007047C1F308028280704700BFFA
:100E5000FEE702E008C8121F08C1002AFAD1704755
:100E60007047002001E001C1121F002AFBD170472A
:100E70000146114A12884A434FF0E0235A6100228A
:100E80009A611A46126942F001021A6100BF4FF0DE
:100E9000E022106900F001021AB100F48032002A49
:100EA000F5D04FF0E022126922F001024FF0E0236A
:100EB0001A6100229A6170471600002000BF0024CA
:100EC0000026002700254820FFF76AFCFFF7E4FA18
:100ED000FFF75EF9FFF7C2FA4FF4A060FFF73EFBA1
:100EE00048F69F4142F21070FFF710FD4721C820DD
:100EF000FFF7A4FC4FF4E130FFF76AFE30E036B9AB
:100F0000601C84B2B4F5967F05D1012603E0601E13
:100F100084B204B9002621461248FFF7C0FD1248EA
:100F2000008800F40040C0B10F480088C0F30D07EE
:100F300000250DE00D48415D0D48FFF784FF00BF1F
:100F400040210B48FFF7B1FE0128F9D1681C85B29A
:100F5000BD42EFDB0020044908800A20FFF788FF2C
:100F6000CDE7000000040040180000201C00002015
:100F700000380140940F0008000000201C00000011
:100F8000520E0008B00F00081C000020CC04000026
:100F9000620E0008000000000102030401020304C5
:100FA000060708090204060800000000000000000F
:0400000508000131BD
:00000001FF
